:020000040800F2
:1000000020130020A90400080905000809050008BC
:10001000090500080905000809050008000000009E
:1000200000000000000000000000000009050008BA
:10003000090500080000000009050008090500087E
:100040000905000809050008090500080905000858
:100050000905000809050008090500080905000848
:100060000905000809050008090500080905000838
:100070000905000809050008090500080905000828
:100080000905000809050008090500080905000818
:10009000311A0008FD1B00080905000809050008C1
:1000A00009050008090500080905000809050008F8
:1000B000090500087D180008B9180008090500089E
:1000C00009050008090500080905000809050008D8
:1000D00009050008090500080905000809050008C8
:1000E00009050008090500080905000800000000CE
:1000F0000000000000000000000000000000000000
:1001000000000000000000005FF808F180B485B036
:1001100000AF786039600023FB817B681B88FB811E
:100120007B682E4A934213D07B682D4A93420FD0AE
:100130007B68B3F1804F0BD07B682A4A934207D08B
:100140007B68294A934203D07B68284A934208D1AE
:10015000FB8923F07003FB813B685A88FB891343BA
:10016000FB817B68224A93420CD07B68214A9342F0
:1001700008D0FB8923F44073FB813B68DA88FB8954
:100180001343FB817B68FA891A803B689A887B68F5
:100190009A853B681A887B681A857B680F4A934268
:1001A0000FD07B680E4A93420BD07B68124A934271
:1001B00007D07B68114A934203D07B68104A934270
:1001C00004D13B681B7A9AB27B681A867B6801224D
:1001D0009A8200BF1437BD4680BC7047002C014096
:1001E000003401400004004000080040000C0040C2
:1001F0000010004000140040004001400044014055
:100200000048014080B483B000AF78607B684FF64F
:10021000FF729A807B6800221A807B680022DA8055
:100220007B6800225A807B6800221A7200BF0C375C
:10023000BD4680BC704700BF80B483B000AF78601B
:100240000B46FB70FB78002B08D07B681B889BB2A9
:1002500043F001039AB27B681A8007E07B681B8831
:100260009BB223F001039AB27B681A8000BF0C375F
:10027000BD4680BC704700BF80B483B000AF7860DB
:100280000B467B8013467B707B78002B08D07B6805
:100290009B899AB27B8813439AB27B689A8109E062
:1002A0007B689B899AB27B88DB439BB213409AB2EE
:1002B0007B689A8100BF0C37BD4680BC704700BF89
:1002C00080B485B000AF78600B467B800023FB7361
:1002D0000023BB8100237B817B681B8A9AB27B88C9
:1002E0001340BB817B689B899AB27B8813407B81DA
:1002F000BB89002B05D07B89002B02D00123FB7327
:1003000001E00023FB73FB7B18461437BD4680BC1D
:10031000704700BF80B483B000AF78600B467B802D
:100320007B88DB439AB27B681A8200BF0C37BD46DC
:1003300080BC704780B500AF154A154B1B6843F071
:10034000010313601249124B5A68124B13404B6061
:100350000F4A0F4B1B6823F0847323F48033136020
:100360000B4A0B4B1B6823F480231360084A084B8D
:100370005B6823F4FE035360054B4FF41F029A6041
:1003800000F00CF8044B4FF000629A6000BF80BD93
:10039000001002400000FFF800ED00E080B500AF63
:1003A00000F002F800BF80BD80B483B000AF00232E
:1003B0007B6000233B603A4A394B1B6843F480332F
:1003C0001360374B1B6803F400333B607B680133D9
:1003D0007B603B68002B03D17B68B3F5A06FF0D145
:1003E0002F4B1B6803F40033002B02D001233B602A
:1003F00001E000233B603B68012B4BD1294A294B8C
:100400001B6843F010031360264A264B1B6823F039
:1004100003031360234A234B1B6843F0020313605A
:100420001F4A1F4B5B6853601D4A1D4B5B6853603E
:100430001B4A1B4B5B6843F480635360184A184B9C
:100440005B6823F47C135360154A154B5B6843F4D7
:10045000E8135360124A124B1B6843F08073136019
:1004600000BF0F4B1B6803F00073002BF9D00C4A40
:100470000B4B5B6823F003035360094A084B5B682E
:1004800043F00203536000BF054B5B6803F00C03AD
:10049000082BF9D100BF0C37BD4680BC704700BFA8
:1004A000001002400020024080B582B000AF114B26
:1004B0007B60114B3B6007E03B681A1D3A607A682D
:1004C000111D796012681A603B680C4A9342F3D39D
:1004D0000B480C494FF000028842B8BF40F8042B8B
:1004E000FADBFFF727FF00F0C9FD00BF0837BD4664
:1004F00080BD00BF949F000800000020E809002094
:10050000E80900201C0F002080B400AFFEE700BF08
:1005100080B582B000AF78607B680E4A93420AD102
:1005200001214FF0007001F0B3FC00214FF000708A
:1005300001F0AEFC09E001214FF0806001F0A8FC61
:1005400000214FF0806001F0A3FC00BF0837BD46DA
:1005500080BD00BF0064004080B485B000AF78600B
:1005600039600023FB730023BB607B681B6823F0AA
:1005700002027B681A607B681B6843F001027B689B
:100580001A6002E0BB680133BB607B685B6803F004
:100590000103002B04D1BB684FF6FF729342F1D1E7
:1005A0007B685B6803F00103002B02D10023FB731F
:1005B0009CE03B689B79012B06D17B681B6843F06C
:1005C00080027B681A6005E07B681B6823F080026C
:1005D0007B681A603B68DB79012B06D17B681B685E
:1005E00043F040027B681A6005E07B681B6823F0DB
:1005F00040027B681A603B681B7A012B06D17B683E
:100600001B6843F020027B681A6005E07B681B686A
:1006100023F020027B681A603B685B7A012B06D1CD
:100620007B681B6843F010027B681A6005E07B68FA
:100630001B6823F010027B681A603B689B7A012BD1
:1006400006D17B681B6843F008027B681A6005E0EE
:100650007B681B6823F008027B681A603B68DB7AC2
:10066000012B06D17B681B6843F004027B681A608B
:1006700005E07B681B6823F004027B681A603B6816
:100680009B789A073B68DB781B061A433B681B790B
:100690001B041A433B685B791B051A433B681B88A4
:1006A000013B1A437B68DA617B681B6823F0010217
:1006B0007B681A600023BB6002E0BB680133BB604B
:1006C0007B685B6803F00103002B04D0BB684FF626
:1006D000FF729342F1D17B685B6803F00103002B4A
:1006E00002D00023FB7301E00123FB73FB7B184660
:1006F0001437BD4680BC704780B485B000AF7860C9
:100700000023FB607B689B7A1A4601239340FB60C1
:10071000554A554BD3F8003243F00103C2F800327A
:100720005149514BD3F81C22FB68DB431340C1F8FD
:100730001C327B681B7B002B25D14B494A4BD3F8DD
:100740000C22FB68DB431340C1F80C3246497B683E
:100750009B7A18467B68DB881B047A6852881A43A8
:1007600000F1480341F833203F497B689B7A1846E3
:100770007B689B881B047A6812881A4300F148033F
:10078000DB000B445A607B681B7B012B24D136496C
:10079000354BD3F80C22FB681343C1F80C323249B5
:1007A0007B689B7A18467B681B881B047A68528892
:1007B0001A4300F1480341F833202B497B689B7AA8
:1007C00018467B689B881B047A68D2881A4300F11C
:1007D0004803DB000B445A607B68DB7A002B09D1AD
:1007E0002149214BD3F80422FB68DB431340C1F8B5
:1007F000043207E01C491C4BD3F80422FB68134366
:10080000C1F804327B681B89002B08D11649164BAE
:10081000D3F81422FB68DB431340C1F814327B6821
:100820001B89012B07D110490F4BD3F81422FB6809
:100830001343C1F814327B685B7B012B07D10A4953
:10084000094BD3F81C22FB681343C1F81C32064A3B
:10085000054BD3F8003223F00103C2F8003200BF89
:100860001437BD4680BC70470064004080B483B03C
:1008700000AF78607B6800229A717B680022DA7191
:100880007B6800221A727B6800225A727B68002201
:100890009A727B680022DA727B6800229A707B6809
:1008A0000022DA707B6803221A717B6802225A7177
:1008B0007B6801221A8000BF0C37BD4680BC7047A0
:1008C00080B485B000AF786039600023FB737B682B
:1008D0009B6803F08063002B02D00023FB7313E0BE
:1008E0007B689B6803F00063002B02D00123FB733D
:1008F0000AE07B689B6803F08053002B02D0022340
:10090000FB7301E00423FB73FB7B042B00F09C8052
:10091000FB7BFA7B7968183212010A44126802F0F4
:100920000102796818331B010B441A603B681B7A7B
:10093000002B13D1FB7BFA7B7968183212010A4431
:1009400011683A68126852053868407A02430A43CF
:10095000796818331B010B441A6015E0FB7BFA7BA6
:100960007968183212010A4411683A685268D20054
:100970003868007A02433868407A02430A4379684B
:1009800018331B010B441A603B689B7A03F00F037A
:10099000DAB23B689A72FB7BFA7B796818321201F3
:1009A0000A440432126822F00F02796818331B01DE
:1009B0000B4404331A60FB7BFA7B7968183212010E
:1009C0000A44043212683968897A0A43796818330C
:1009D0001B010B4404331A60FB7B3A68927B1106BF
:1009E0003A68527B120411433A68127B12020A439E
:1009F0003968C97A0A4379681B010B4403F5C4734B
:100A00001A60FB7B3A68927C11063A68527C1204A9
:100A100011433A68127C12020A433968C97B0A43BF
:100A200079681B010B4403F5C6731A60FB7BFA7BE4
:100A30007968183212010A44126842F0010279689A
:100A400018331B010B441A60FB7B18461437BD4654
:100A500080BC704780B485B000AFF8600B467A6008
:100A6000FB72FB7AFA681B331B0113441B68DBB271
:100A700003F00403DAB27B681A727B681B7A002BDE
:100A800009D1FB7AFA681B331B0113441B685A0D0A
:100A90007B681A6008E0FB7AFA681B331B01134479
:100AA0001B68DA087B685A60FB7AFA681B331B0103
:100AB00013441B68DBB203F00203DAB27B685A729C
:100AC000FB7AFA681B331B01134404331B68DBB247
:100AD00003F00F03DAB27B689A72FB7AFA681B3371
:100AE0001B01134404331B681B0ADAB27B68DA74F7
:100AF000FB7AFA681B01134403F5DC731B68DAB256
:100B00007B68DA72FB7AFA681B01134403F5DC7325
:100B10001B681B0ADAB27B681A73FB7AFA681B013E
:100B2000134403F5DC731B681B0CDAB27B685A7341
:100B3000FB7AFA681B01134403F5DC731B681B0E78
:100B4000DAB27B689A73FB7AFA681B01134403F5E7
:100B5000DE731B68DAB27B68DA73FB7AFA681B0112
:100B6000134403F5DE731B681B0ADAB27B681A7440
:100B7000FB7AFA681B01134403F5DE731B681B0C38
:100B8000DAB27B685A74FB7AFA681B01134403F5E6
:100B9000DE731B681B0EDAB27B689A74FB7A002B3B
:100BA00006D1FB68DB6843F02002FB68DA6005E0F1
:100BB000FB681B6943F02002FB681A6100BF143711
:100BC000BD4680BC704700BF80B485B000AFF86000
:100BD000B9601346FB71FB79002B06D0FB685A699C
:100BE000BB681A43FB685A6106E0FB685A69BB6838
:100BF000DB431A40FB685A6100BF1437BD4680BC16
:100C0000704700BF80B584B000AF786039600023C2
:100C1000FB737B685A693B681340002B00F0B2807D
:100C20003B68402B62D0402B0FD8042B3AD0042BCA
:100C300004D8012B24D0022B2BD09FE0102B43D0C3
:100C4000202B4AD0082B36D098E0B3F5006F00F087
:100C50008380B3F5006F09D8B3F5007F6AD0B3F590
:100C6000806F70D0B3F5807F5BD087E0B3F5803FB5
:100C700045D0B3F5003F4BD0B3F5004F75D07DE0C4
:100C80007B689B684349184600F086F80346FB736F
:100C90007AE07B68DB680321184600F07DF80346A4
:100CA000FB7371E07B68DB680821184600F074F87C
:100CB0000346FB7368E07B68DB681021184600F090
:100CC0006BF80346FB735FE07B681B6903211846E2
:100CD00000F062F80346FB7356E07B681B6908214D
:100CE000184600F059F80346FB734DE07B681B691A
:100CF0001021184600F050F80346FB7344E07B686F
:100D00005B680821184600F047F80346FB733BE098
:100D10007B685B681021184600F03EF80346FB73C1
:100D200032E07B689B690121184600F035F80346E4
:100D3000FB7329E07B689B690221184600F02CF8C0
:100D40000346FB7320E07B689B690421184600F092
:100D500023F80346FB7317E07B689B6970211846F4
:100D600000F01AF80346FB730EE07B685B68042111
:100D7000184600F011F80346FB7305E00023FB73EF
:100D800000BF01E00023FB73FB7B18461037BD4614
:100D900080BD00BF0101010080B485B000AF786064
:100DA00039600023FB737A683B681340002B02D044
:100DB0000123FB7301E00023FB73FB7B1846143710
:100DC000BD4680BC704700BF80B489B000AF78607A
:100DD00039600023FB6100233B610023BB610023DA
:100DE000FB6000237B610023BB603B68DB7803F082
:100DF0000F03FB613B68DB7803F01003002B05D089
:100E00003B689B781A46FB691343FB613B681B8870
:100E1000DBB2002B44D07B681B687B610023BB6185
:100E200038E00122BB6902FA03F3FB603B681B88D0
:100E30001A46FB6813403B613A69FB689A4226D127
:100E4000BB699B00FB600F22FB6802FA03F3BB60E7
:100E5000BB68DB437A6913407B61FA69FB6802FA7D
:100E600003F37A6913437B613B68DB78282B05D158
:100E70000122BB699A407B685A6108E03B68DB78D5
:100E8000482B04D10122BB699A407B681A61BB6977
:100E90000133BB61BB69072BC3D97B687A691A60D0
:100EA0003B681B88FF2B46D97B685B687B6100230E
:100EB000BB613AE0BB690833012202FA03F3FB602D
:100EC0003B681B881A46FB6813403B613A69FB6824
:100ED0009A4227D1BB699B00FB600F22FB6802FA94
:100EE00003F3BB60BB68DB437A6913407B61FA693B
:100EF000FB6802FA03F37A6913437B613B68DB7892
:100F0000282B05D1BB69083301229A407B685A61BE
:100F10003B68DB78482B05D1BB69083301229A4036
:100F20007B681A61BB690133BB61BB69072BC1D9FF
:100F30007B687A695A6000BF2437BD4680BC704721
:100F400080B483B000AF78600B467B807A887B6882
:100F50001A6100BF0C37BD4680BC704780B483B0B7
:100F600000AF78600B467B807A887B685A6100BF4F
:100F70000C37BD4680BC704780B487B000AF786046
:100F80000B46FB7000233B610023FB6000237B6169
:100F90000023BB607B68002B03DA2E4BDB697B618F
:100FA00002E02C4B5B687B617B681B0C03F00F033A
:100FB000BB607B689BB23B617B6803F44013B3F575
:100FC000401F0AD17B6923F070637B61214A214B6A
:100FD0005B6823F07063536021E07B6803F4801347
:100FE000002B0ED00322BB6802FA03F3FB60FB6800
:100FF000DB437A6913407B617B6943F070637B61FB
:101000000DE07B685B0D1B013A6902FA03F3DB43D9
:101010007A6913407B617B6943F070637B61FB7885
:10102000002B08D07B685B0D1B013A6902FA03F3C1
:101030007A6913437B617B68002B03DA054A7B697D
:10104000D36102E0034A7B69536000BF1C37BD4691
:1010500080BC70470000014080B483B000AF002323
:101060007B6002E07B6801337B607B68B3F5C00F77
:10107000F8D100BF0C37BD4680BC704790B599B021
:1010800000AF0121102000F0C7FE4FF400533B8455
:10109000102387F82330032387F8223007F1200339
:1010A00019465A48FFF790FE0121012000F0B4FED6
:1010B00001215748FFF760FF01233B650123FB65D2
:1010C000FFF738F901F006F900F072FB00F012FCAE
:1010D0000A21052001F080FA01224E494E4801F014
:1010E00011FB2121262001F077FA01224B494C48BF
:1010F00001F008FB01F0C6F94FF400514348FFF737
:101100002DFFFFF7A9FF4FF400514048FFF718FFEC
:10111000444B1A68444B1B689A4226D00023BB6597
:101120001CE0424ABB6D12F83330002B13D03F4A0B
:10113000BB6DDB0013445B6842F20F7293420ADC22
:101140003A4ABB6DDB0013445B685A1C3749BB6DE0
:10115000DB000B445A60BB6D0133BB65BB6D092BD3
:10116000DFDD304B1B68304A1360314B1A68314B5E
:101170001B689A4226D000237B651CE02E4A7B6DBB
:1011800012F83330002B13D02B4A7B6DDB00134455
:101190005B6842F20F7293420ADC274A7B6DDB00E8
:1011A00013445B685A1C24497B6DDB000B445A6076
:1011B0007B6D01337B657B6D092BDFDD1C4B1B6871
:1011C0001C4A1360194B01221A72184BDB6801226A
:1011D00093424FDB194B1B68002B09DB174B1B6835
:1011E000092B05DC154B1B68184600F039FD2CE077
:1011F000134B1B7883F00103DBB2002B22D01120AC
:1012000000F02EFD0E4B01221A701EE0001001406E
:101210000002300030000020687400082800002020
:1012200074740008380A00203C0A0020E8090020F5
:10123000900A0020940A0020400A0020980A00200A
:101240009C0A0020142000F00BFDCD4B1B680133DD
:10125000CB4A1360CA4B1B680A2B02DDC84B002225
:101260001A600123FB65C74B00221A72642101201A
:1012700000F064FAC44B1B68184601F0CDFC4FF037
:101280000002C24B01F058FE03460C4618462146A8
:1012900001F03AFF0346FB64BD4B1B68184601F0A2
:1012A000BBFC4FF00002BB4B01F046FE03460C4670
:1012B0001846214601F028FF0346BB64B64B1B6865
:1012C000184601F0A9FC4FF00002B24B01F034FEC9
:1012D00003460C461846214601F016FF03467B6480
:1012E000AE4B1B68184601F097FC4FF00002A94B6B
:1012F00001F022FE03460C461846214601F004FF89
:1013000003463B64A64B1B68184601F085FC4FF072
:101310000002A04B01F010FE03460C461846214681
:1013200001F0F2FE0346FB639E4B1B68184601F07A
:1013300073FC4FF00002974B01F0FEFD03460C4694
:101340001846214601F0E0FE0346BB63964B1B683E
:10135000184601F061FC4FF000028E4B01F0ECFDED
:1013600003460C461846214601F0CEFE03467B6339
:101370008E4B1B68184601F04FFC4FF00002854B66
:1013800001F0DAFD03460C461846214601F0BCFE8A
:1013900003463B63864B1B68184601F03DFC4FF04B
:1013A00000027C4B01F0C8FD03460C46184621465E
:1013B00001F0AAFE0346FB627E4B1B68184601F053
:1013C0002BFC4FF00002734B01F0B6FD03460C46B8
:1013D0001846214601F098FE0346BB62764B1B6817
:1013E000184601F019FC4FF00002744B01F0A4FD07
:1013F00003460C461846214601F086FE03467B62F2
:101400003B6D012B40F08981FB6D002B00F0848146
:10141000002001F06BF80021002001F0DDF801222E
:101420006749684801F06EF9B86C01F007FC0346A3
:101430000C4638461A462346634901F003FF002153
:10144000182001F0C9F83B4601225D49184601F019
:1014500059F90A21002001F0BFF8012258495B48E0
:1014600001F050F9786C01F0E9FB03460C46384670
:101470001A462346544901F0E5FE0A21182001F0DE
:10148000ABF83B4601224E49184601F03BF91421C6
:10149000002001F0A1F8012249494D4801F032F93C
:1014A000386C01F0CBFB03460C4638461A462346FF
:1014B000454901F0C7FE1421182001F08DF83B4684
:1014C00001223F49184601F01DF91E21002001F0BC
:1014D00083F801223A493F4801F014F9F86B01F012
:1014E000ADFB03460C4638461A462346364901F002
:1014F000A9FE1E21182001F06FF83B460122304959
:10150000184601F0FFF82821002001F065F80122BB
:101510002B49314801F0F6F8B86B01F08FFB034618
:101520000C4638461A462346274901F08BFE2821EF
:10153000182001F051F83B4601222149184601F0DC
:10154000E1F83221002001F047F801221C4923482C
:1015500001F0D8F8F86C01F071FB03460C463846F0
:101560001A4623461E4901F06DFE32211E2001F06D
:1015700033F83B4601221249184601F0C3F831E026
:10158000980A0020E8090020A00A0020000024405A
:10159000A80A002000408F40AC0A0020B00A0020BA
:1015A000B40A0020B80A0020BC0A0020C00A0020AB
:1015B000C40A0020C80A0020CC0A002000005940BC
:1015C00028000020807400088874000890740008C7
:1015D00098740008A0740008A8740008B07400088B
:1015E000B87400080021442000F0F6FF01224B49A6
:1015F0004B4801F087F8786B01F020FB03460C465E
:1016000038461A462346474901F01CFE00215C205B
:1016100000F0E2FF3B4601224049184601F072F813
:101620000A21442000F0D8FF01223C493E4801F045
:1016300069F8386B01F002FB03460C4638461A463F
:101640002346384901F0FEFD0A215C2000F0C4FF6A
:101650003B4601223149184601F054F81421442038
:1016600000F0BAFF01222D49304801F04BF8F86A2A
:1016700001F0E4FA03460C4638461A462346294947
:1016800001F0E0FD14215C2000F0A6FF3B460122A2
:101690002249184601F036F81E21442000F09CFF34
:1016A00001221E49224801F02DF8B86A01F0C6FA5D
:1016B00003460C4638461A4623461A4901F0C2FD35
:1016C0001E215C2000F088FF3B460122134918468A
:1016D00001F018F82821442000F07EFF01220F4974
:1016E000144801F00FF8786A01F0A8FA03460C4696
:1016F00038461A462346104901F0A4FD28215C20F3
:1017000000F06AFF3B4601220449184600F0FAFF48
:1017100000F0B8FE0023FB6500BFF9E428000020BC
:10172000C074000888740008C8740008D0740008E9
:10173000D8740008E0740008E474000880B483B032
:1017400000AF786039603B68012B12D17B68002BB9
:1017500024DB7B68092B21DC134A7B68DB00134404
:1017600000225A70104A7B68DB00134400225A6042
:1017700014E03B68642B11D17B68002B0EDB7B6887
:10178000092B0BDC094A7B68DB00134400225A70EA
:10179000064A7B68DB00134400225A6000BF0C3706
:1017A000BD4680BC704700BFE8090020400A002009
:1017B00080B586B000AF0121022000F04BFB012173
:1017C000042000F047FB07F10C031846FEF71AFD52
:1017D000264B1B68264AA2FB03235B0B9BB2013BF3
:1017E0009BB2BB810A233B820023FB8107F10C03E0
:1017F00019462048FEF78AFC4FF47A733B82002397
:10180000FB8107F10C0319461B48FEF77FFC012200
:1018100001211848FEF730FD012201211648FEF78C
:101820002BFD01211348FEF707FD01211248FEF7A9
:1018300003FD1D233B7201237B720123BB72012335
:10184000FB7207F10803184600F0E2FC1E233B710F
:1018500001237B710023BB710123FB713B1D1846E3
:1018600000F0D6FC00BF1837BD4680BD0000002048
:101870005917B7D1000400400008004080B500AF00
:1018800001210B48FEF71CFD0346002B0ED0012161
:101890000748FEF73FFD074B1B68002B03D1054BA4
:1018A00001221A6002E0034B00221A6000BF80BDD3
:1018B00000040040380A002080B500AF01210B4829
:1018C000FEF7FEFC0346002B0ED001210748FEF771
:1018D00021FD074B1B68002B03D1054B01221A6029
:1018E00002E0034B00221A6000BF80BD00080040E8
:1018F000900A002080B58AB000AF0121012000F0DD
:101900008BFA0121042000F087FA01214FF00070CA
:1019100000F0A0FA4FF40063BB84482387F8273017
:10192000032387F8263007F1240319463E48FFF7C2
:101930004BFA4FF48053BB84182387F827300323D6
:1019400087F8263007F1240319463748FFF73CFA99
:101950003648FEF7DDFD07F118031846FEF786FF4F
:101960000023BB770023FB77002387F82030012377
:1019700087F82130002387F82230002387F82330AE
:101980000023BB760023FB7602233B7703237B7780
:1019900009233B8307F1180319462448FEF7DCFDB1
:1019A0000023BB740023FB7401233B7540F22B73AF
:1019B0005B019BB23B8100237B8140F22B735B0177
:1019C0009BB2BB810023FB8100233B8201237B75FB
:1019D00007F108031846FEF78FFE14233B7100231E
:1019E0007B710023BB710123FB713B1D184600F086
:1019F0000FFC012202210D48FFF7E6F815233B7189
:101A000000237B710023BB710123FB713B1D184632
:101A100000F0FEFB012210210448FFF7D5F800BFBB
:101A20002837BD4680BD00BF00080140006400406B
:101A300080B586B000AF0023BB730023BB600023DA
:101A4000FB7500233B7300237B7300237B60002323
:101A5000FB7300233B7400237B740023BB740023BF
:101A6000FB7400233B7500237B750023BB750221AB
:101A70005448FFF7C7F80346002B00F09F803B1D3A
:101A80001A4600214F48FEF7E5FF3B7B002B40F054
:101A900095807B6840F22B72934240F08F80BB7C34
:101AA000142B06D13B7D1A46FB7C1B021343464A8E
:101AB0001360BB7C092B71D8BB7C1A46434B1A6060
:101AC000424B1B68002B06D13B7D1A46FB7C1B0258
:101AD00013433F4A13603D4B1B68012B06D13B7DEE
:101AE0001A46FB7C1B0213433A4A1360374B1B68B0
:101AF000022B06D13B7D1A46FB7C1B021343364A60
:101B00001360324B1B68032B06D13B7D1A46FB7CCE
:101B10001B021343314A13602C4B1B68042B06D164
:101B20003B7D1A46FB7C1B0213432D4A1360274B57
:101B30001B68052B06D13B7D1A46FB7C1B02134319
:101B4000284A1360214B1B68062B06D13B7D1A46A1
:101B5000FB7C1B021343244A13601C4B1B68072B9E
:101B600006D13B7D1A46FB7C1B0213431F4A1360C0
:101B7000164B1B68082B06D13B7D1A46FB7C1B02CB
:101B800013431B4A1360114B1B68092B06D13B7D85
:101B90001A46FB7C1B021343164A1360BB7C112BB5
:101BA0000CD1BA7D7B7D1343DAB23B7D1343DAB2AD
:101BB000FB7C1343DBB21A460F4B1A6000BF183789
:101BC000BD4680BD00640040A00A0020A40A002099
:101BD000A80A0020AC0A0020B00A0020B40A0020A5
:101BE000B80A0020BC0A0020C00A0020C40A002055
:101BF000C80A0020CC0A0020D00A002080B586B098
:101C000000AF0023BB730023BB600023FB750023E0
:101C10003B7300237B7300237B600023FB73002353
:101C20003B7400237B740023BB740023FB740023EC
:101C30003B7500237B750023BB7510210748FEF719
:101C4000E1FF0346002B05D03B1D1A460121034846
:101C5000FEF700FF00BF1837BD4680BD006400409E
:101C600080B588B000AF786040F22373FB6000233A
:101C70003B6100233B7500237B750823BB75032361
:101C8000FB7522233B76D9237B767B68DBB2BB7660
:101C90000023FB7600233B7700237B770023BB7771
:101CA00007F10C0319460348FEF70AFE00BF203770
:101CB000BD4680BD0064004080B487B000AF78604E
:101CC00000237B6100233B610023FB600023BB609A
:101CD0004C4B5B6803F00C037B617B69042B07D0E2
:101CE000082B09D0002B33D17B68474A1A6033E0B8
:101CF0007B68454A1A602FE0424B5B6803F470131F
:101D00003B61404B5B6803F48033FB603B699B0C99
:101D100002333B61FB68002B06D13B693B4A02FB67
:101D200003F27B681A6017E0364B5B6803F40033FC
:101D3000002B06D03B69354A02FB03F27B681A6030
:101D40000AE03B69304A02FB03F27B681A6003E059
:101D50007B682D4A1A6000BF2A4B5B6803F0F003D2
:101D60007B617B691B097B61294A7B6913441B7872
:101D7000DBB2BB607B681A68BB68DA407B685A607C
:101D8000204B5B6803F4E0637B617B691B0A7B612A
:101D90001F4A7B6913441B78DBB2BB607B685A68BF
:101DA000BB68DA407B689A60164B5B6803F460534B
:101DB0007B617B69DB0A7B61154A7B6913441B7875
:101DC000DBB2BB607B685A68BB68DA407B68DA606C
:101DD0000C4B5B6803F440437B617B699B0B7B612D
:101DE0000C4A7B6913441B78DBB2BB607B68DA6802
:101DF000BB68B2FBF3F27B681A6100BF1C37BD46BB
:101E000080BC70470010024000127A0000093D00BB
:101E1000140000202400002080B483B000AF78605C
:101E20000B46FB70FB78002B06D00949084B9A69DA
:101E30007B6813438B6106E00549054B9A697B6813
:101E4000DB4313408B6100BF0C37BD4680BC70473D
:101E50000010024080B483B000AF78600B46FB7086
:101E6000FB78002B06D00949084BDA697B681343DD
:101E7000CB6106E00549054BDA697B68DB4313401B
:101E8000CB6100BF0C37BD4680BC704700100240DC
:101E900080B483B000AF78600B46FB70FB78002BFA
:101EA00006D00949084B1A697B6813430B6106E0A9
:101EB0000549054B1A697B68DB4313400B6100BF82
:101EC0000C37BD4680BC70470010024080B485B01E
:101ED00000AF78600A4B1B68002B02D1084B094AFF
:101EE0001A60074B1B68FB60054B1A687B6813443C
:101EF000034A1360FB6818461437BD4680BC704720
:101F0000D40A00201C0F002080B586B000AF01214C
:101F10004FF40010FFF79EFF01210820FFF77CFF20
:101F2000134B7B6000233B814BF6FF737B811523B2
:101F3000BB810023FB814FF480433B823B1D19464C
:101F40000C4800F005FCC023BB821C23FB75032357
:101F5000BB7507F1140319460748FEF735FF012149
:101F6000044800F0B7FC00BF1837BD4680BD00BF75
:101F7000801A060000540040000C014080B586B075
:101F800000AFF8607B600B46FB721346BB72F97AB8
:101F900000230022F86800F01FF8BB7A1946F868A1
:101FA00000F09EF80023FB750AE0FB7D7A6813447D
:101FB0001B781946F86800F093F8FB7D0133FB7538
:101FC000FB7D9BB23A8C9A42EFD8F86800F0D2F8C9
:101FD00000BF1837BD4680BD80B582B000AF7860C5
:101FE000084611461A460346FB700B46BB70134663
:101FF0007B707B681B889BB243F480739AB27B68CA
:102000001A80354B44F620621A600AE0324B1B6896
:10201000013B314A1360304B1B68002B01D1012377
:1020200056E07B689B8A9BB203F00103002BEDD046
:102030007B78002B07D07B681B889BB243F48063BE
:102040009AB27B681A80BB78002B1DD1FB789BB2BB
:1020500023F001039AB27B681A821F4B44F6206278
:102060001A600AE01C4B1B68013B1B4A13601A4BA9
:102070001B68002B01D101232AE07B689B8A9BB25D
:1020800003F00203002BEDD0BB78012B1DD1FB78B0
:1020900043F00103DBB29AB27B681A820E4B44F61E
:1020A00020621A600AE00C4B1B68013B0A4A13606D
:1020B000094B1B68002B01D1012309E0074978680F
:1020C00000F028FC0346002BEDD07B681B8B00231F
:1020D00018460837BD4680BDD80A0020020003001C
:1020E00080B483B000AF78600B46FB700E4B44F6B3
:1020F00020621A6004E00C4B1B68013B0A4A136023
:102100007B689B8A9BB203F08003002B03D1064BB4
:102110001B68002BEFD1FB789AB27B681A8200BF54
:102120000C37BD4680BC7047D80A002080B582B00D
:1021300000AF7860084611461A460346FB700B460E
:10214000BB7013467B70F978002300227868FFF794
:1021500043FFBB7819467868FFF7C2FF7B781946C2
:102160007868FFF7BDFF786800F004F800BF083713
:10217000BD4680BD80B483B000AF7860154B44F697
:1021800020621A600AE0134B1B68013B114A13607E
:10219000104B1B68002B01D1012316E07B689B8A42
:1021A0009BB203F08003002BEDD07B689B8A9BB22F
:1021B00003F00403002BE6D07B681B889BB243F43A
:1021C00000739AB27B681A80002318460C37BD460C
:1021D00080BC7047D80A002080B584B000AF78601A
:1021E0000B46FB700023FB73F9780123002278680B
:1021F000FFF7F2FE0346002B01D10123FB73786841
:10220000FFF7B8FFFB7B18461037BD4680BD00BF07
:1022100080B487B000AF786000237B6100233B610E
:102220000F23FB607B68DB78002B3AD0274BDB6801
:10223000DB4303F4E0631B0A7B617B69C3F10403A6
:102240003B61FA687B6922FA03F3FB607B685B7889
:102250001A463B6902FA03F37B617B689B781A4656
:10226000FB6813407A6913437B617B691B017B61C7
:10227000174A7B681B787969C9B213440A4683F808
:102280000023134A7B681B785B09DBB218467B6826
:102290001B7803F01F03012101FA03F342F82030F9
:1022A0000FE00B497B681B785B09DBB218467B6843
:1022B0001B7803F01F0301229A4000F1200341F82C
:1022C000232000BF1C37BD4680BC704700ED00E0F6
:1022D00000E100E080B582B000AFFFF715FE782185
:1022E0006648FFF779FF0346002B01D10023C0E0C9
:1022F00040F6C4137B6002E07B68013B7B607B6837
:10230000002BF9D1AE23002278215C48FFF70EFFA5
:102310002023002278215948FFF708FF10230022CC
:1023200078215648FFF702FFB02300227821534856
:10233000FFF7FCFEC823002278215048FFF7F6FE85
:102340000023002278214D48FFF7F0FE10230022E1
:1023500078214A48FFF7EAFE4023002278214748C7
:10236000FFF7E4FE8123002278214448FFF7DEFED8
:10237000FF23002278214148FFF7D8FEA123002245
:1023800078213E48FFF7D2FEA623002278213B4861
:10239000FFF7CCFEA823002278213848FFF7C6FEBD
:1023A0003F23002278213548FFF7C0FEA4230022F6
:1023B00078213248FFF7BAFED323002278212F4834
:1023C000FFF7B4FE0023002278212C48FFF7AEFE71
:1023D000D523002278212948FFF7A8FEF023002208
:1023E00078212648FFF7A2FED9230022782123482E
:1023F000FFF79CFE2223002278212048FFF796FE5B
:10240000DA23002278211D48FFF790FE12230022D4
:1024100078211A48FFF78AFEDB230022782117482B
:10242000FFF784FE2023002278211448FFF77EFE68
:102430008D23002278211148FFF778FE1423002213
:1024400078210E48FFF772FEAF23002278210B4857
:10245000FFF76CFE002000F049F800F013F8084B7D
:1024600000221A80064B00225A80054B01225A7125
:10247000012318460837BD4680BD00BF0054004008
:10248000DC0E002080B584B002AF0023FB7122E097
:10249000FB79503BDBB2002278211248FFF746FE61
:1024A0000023002278210F48FFF740FE102300226E
:1024B00078210C48FFF73AFEFB79DB010A4A1A44FF
:1024C000802300931346402278210648FFF756FDEB
:1024D000FB790133FB71FB79072BD9D900BF083792
:1024E000BD4680BD00540040DC0A002080B582B0AB
:1024F00000AF0346FB71FB79002B01D1002300E004
:10250000FF234FF480621946034800F04DFE00BFE0
:102510000837BD4680BD00BFDC0A002080B483B010
:1025200000AF0346FB800B46BB801346FB70FB8865
:102530007F2B48D8BB883F2B45D8254B1B79002BD8
:1025400006D0FB78002B0CBF01230023DBB2FB700D
:10255000FB78012B1AD1FA88BB88DB0898B20346B6
:10256000DB011344F9880246D2010A4419498A5C06
:1025700051B2BA8802F00702012000FA02F252B208
:102580000A4352B2D1B2134AD1541DE0FA88BB8833
:10259000DB0898B20346DB011344F9880246D201F6
:1025A0000A440C498A5C51B2BA8802F00702012041
:1025B00000FA02F252B2D24352B20A4052B2D1B23F
:1025C000044AD15400E000BF0C37BD4680BC7047C0
:1025D000DC0E0020DC0A002080B483B000AF03468C
:1025E0000A46FB801346BB80054AFB881380044AD9
:1025F000BB88538000BF0C37BD4680BC704700BF0E
:10260000DC0E002080B586B000AF03463960FB7158
:102610001346BB713A4B1B881A463B681B78134420
:102620007F2B07DC364B5B881A463B685B7813448C
:102630003F2B01DD00235EE000237B614BE03B6824
:102640005A68FB79203B3968497801FB03F3194646
:102650007B690B445B0013441B88FB6000233B61D8
:1026600030E0FA683B6902FA03F303F40043002BFD
:1026700010D0234B1A883B699BB2134498B2204B6D
:102680005A887B699BB213449BB2BA791946FFF70B
:1026900045FF14E01A4B1A883B699BB2134498B269
:1026A000174B5A887B699BB2134499B2BB79002BB4
:1026B0000CBF01230023DBB21A46FFF72FFF3B6953
:1026C00001333B613B681B781A463B699A42C8D884
:1026D0007B6901337B613B685B781A467B699A4270
:1026E000ADD8074B1A883B681B789BB213449AB24B
:1026F000034B1A80FB7918461837BD4680BD00BFD2
:10270000DC0E002080B584B000AFF860B9601346DD
:10271000FB7112E0FB681B78FA79B9681846FFF77D
:1027200071FF03461A46FB681B789A4202D0FB6889
:102730001B7808E0FB680133FB60FB681B78002B0B
:10274000E8D1FB681B7818461037BD4680BD00BF36
:1027500080B58AB000AF786039600023FB84002325
:102760007B840423BB84574BFB617B689B88FB8481
:10277000FB8C23F03F03FB8407F108031846FFF7A7
:102780009BFA3B69FB61FB694F4AA2FB03239B0C4D
:102790007B84FA8C7B8C1343FB847B68FA8C9A8055
:1027A0007B681B889BB223F001039AB27B681A8076
:1027B0000023FB843B681B68444A934215D83B685E
:1027C0001B685B00FA69B2FBF3F3BB84BB8C032B81
:1027D00001D80423BB84FA8CBB8C1343FB847B8C11
:1027E00001339AB27B681A8440E03B68DB884BF681
:1027F000FF72934209D13B681A6813465B00134489
:10280000FA69B2FBF3F3BB840EE03B681A68134627
:102810009B0013449A001344FA69B2FBF3F3BB84A0
:10282000BB8C43F48043BB84BB8CC3F30B03002BF2
:1028300003D1BB8C43F00103BB84BA8CFB8C1343E4
:102840009BB26FEA43436FEA5343FB847B8C4FF4A4
:10285000967202FB03F31E4A82FB03129211DB17EE
:10286000D31A9BB201339AB27B681A847B68FA8CC4
:102870009A837B681B889BB243F001039AB27B6802
:102880001A807B681B88FB84FB8C23F4816323F014
:102890000203FB843B689A883B685B8913439AB2C6
:1028A000FB8C1343FB847B68FA8C1A803B689A8903
:1028B0003B681B8913439AB27B681A8100BF283793
:1028C000BD4680BD00127A0083DE1B43A086010056
:1028D000D34D621080B483B000AF78600B46FB70BC
:1028E000FB78002B08D07B681B889BB243F0010368
:1028F0009AB27B681A8007E07B681B889BB223F042
:1029000001039AB27B681A8000BF0C37BD4680BCB9
:10291000704700BF80B487B000AF78603960002393
:102920003B610023FB600023BB600023FB757B68D9
:102930009B8A9BB2FB607B681B8B9BB2BB60BB68B6
:102940001B04BB60FA68BB68134323F07F433B6101
:102950003A693B681A403B689A4202D10123FB75F1
:1029600001E00023FB75FB7D18461C37BD4680BC8B
:10297000704700BF81F0004102E000BF83F00043D8
:1029800030B54FEA41044FEA430594EA050F08BF0A
:1029900090EA020F1FBF54EA000C55EA020C7FEACE
:1029A000645C7FEA655C00F0E2804FEA5454D4EB4B
:1029B0005555B8BF6D420CDD2C4480EA020281EA15
:1029C000030382EA000083EA010180EA020281EA4D
:1029D0000303362D88BF30BD11F0004F4FEA01319F
:1029E0004FF4801C4CEA113102D0404261EB4101AE
:1029F00013F0004F4FEA03334CEA133302D0524234
:102A000063EB430394EA050F00F0A780A4F10104EF
:102A1000D5F1200E0DDB02FA0EFC22FA05F2801829
:102A200041F1000103FA0EF2801843FA05F359410F
:102A30000EE0A5F120050EF1200E012A03FA0EFC8E
:102A400028BF4CF0020C43FA05F3C01851EBE371B8
:102A500001F0004507D54FF0000EDCF1000C7EEBD5
:102A600000006EEB0101B1F5801F1BD3B1F5001F13
:102A70000CD349085FEA30004FEA3C0C04F1010432
:102A80004FEA445212F5800F80F09A80BCF1004F5B
:102A900008BF5FEA500C50F1000041EB045141EADD
:102AA000050130BD5FEA4C0C404141EB010111F4DE
:102AB000801FA4F10104E9D191F0000F04BF014689
:102AC0000020B1FA81F308BF2033A3F10B03B3F167
:102AD00020020CDA0C3208DD02F1140CC2F10C02F7
:102AE00001FA0CF021FA02F10CE002F11402D8BF55
:102AF000C2F1200C01FA02F120FA0CFCDCBF41EA21
:102B00000C019040E41AA2BF01EB0451294330BDEF
:102B10006FEA04041F3C1CDA0C340EDC04F11404CC
:102B2000C4F1200220FA04F001FA02F340EA0300A3
:102B300021FA04F345EA030130BDC4F10C04C4F1E9
:102B4000200220FA02F001FA04F340EA03002946C9
:102B500030BD21FA04F0294630BD94F0000F83F413
:102B6000801306BF81F480110134013D4EE77FEAF6
:102B7000645C18BF7FEA655C29D094EA050F08BF42
:102B800090EA020F05D054EA000C04BF1946104623
:102B900030BD91EA030F1EBF0021002030BD5FEA67
:102BA000545C05D14000494128BF41F0004130BD8F
:102BB00014F580043CBF01F5801130BD01F00045E3
:102BC00045F0FE4141F470014FF0000030BD7FEA56
:102BD000645C1ABF194610467FEA655C1CBF0B4651
:102BE000024650EA013406BF52EA033591EA030F68
:102BF00041F4002130BD00BF90F0000F04BF002160
:102C0000704730B54FF4806404F132044FF0000592
:102C10004FF0000150E700BF90F0000F04BF00210B
:102C2000704730B54FF4806404F1320410F0004571
:102C300048BF40424FF000013EE700BF42004FEA6C
:102C4000E2014FEA31014FEA02701FBF12F07F43E9
:102C500093F07F4F81F06051704792F0000F14BFE6
:102C600093F07F4F704730B54FF4607401F000452A
:102C700021F0004120E700BF50EA010208BF704781
:102C800030B54FF000050AE050EA010208BF704776
:102C900030B511F0004502D5404261EB41014FF4DF
:102CA000806404F132045FEA915C3FF4DCAE4FF0E3
:102CB00003025FEADC0C18BF03325FEADC0C18BFCA
:102CC000033202EBDC02C2F1200300FA03FC20FA1B
:102CD00002F001FA03FE40EA0E0021FA02F1144468
:102CE000C1E600BF70B54FF0FF0C4CF4E06C1CEA7D
:102CF00011541DBF1CEA135594EA0C0F95EA0C0FF2
:102D000000F0DEF82C4481EA030621EA4C5123EA64
:102D10004C5350EA013518BF52EA033541F4801193
:102D200043F4801338D0A0FB02CE4FF00005E1FB46
:102D300002E506F00042E0FB03E54FF00006E1FB90
:102D400003569CF0000F18BF4EF0010EA4F1FF04D3
:102D5000B6F5007F64F5407404D25FEA4E0E6D4113
:102D600046EB060642EAC62141EA55514FEAC52024
:102D700040EA5E504FEACE2EB4F1FD0C88BFBCF5A0
:102D8000E06F1ED8BEF1004F08BF5FEA500E50F151
:102D9000000041EB045170BD06F0004646EA010117
:102DA00040EA020081EA0301B4EB5C04C2BFD4EB49
:102DB0000C0541EA045170BD41F480114FF0000E42
:102DC000013C00F3AB8014F1360FDEBF002001F0B0
:102DD000004170BDC4F10004203C35DA0C341BDC2A
:102DE00004F11404C4F1200500FA05F320FA04F0FC
:102DF00001FA05F240EA020001F0004221F0004130
:102E000010EBD37021FA04F642EB06015EEA430EA2
:102E100008BF20EAD37070BDC4F10C04C4F12005D2
:102E200000FA04F320FA05F001FA04F240EA020085
:102E300001F0004110EBD37041F100015EEA430E56
:102E400008BF20EAD37070BDC4F1200500FA05F276
:102E50004EEA020E20FA04F301FA05F243EA0203F5
:102E600021FA04F001F0004121FA04F220EA020004
:102E700000EBD3705EEA430E08BF20EAD37070BD4A
:102E800094F0000F0FD101F00046400041EB01012A
:102E900011F4801F08BF013CF7D041EA060195F00C
:102EA000000F18BF704703F00046520043EB0303C6
:102EB00013F4801F08BF013DF7D043EA06037047B3
:102EC00094EA0C0F0CEA135518BF95EA0C0F0CD0BE
:102ED00050EA410618BF52EA4306D1D181EA030104
:102EE00001F000414FF0000070BD50EA410606BFFE
:102EF0001046194652EA430619D094EA0C0F02D143
:102F000050EA013613D195EA0C0F05D152EA033687
:102F10001CBF104619460AD181EA030101F00041A5
:102F200041F0FE4141F470014FF0000070BD41F0EE
:102F3000FE4141F4780170BD70B54FF0FF0C4CF4C8
:102F4000E06C1CEA11541DBF1CEA135594EA0C0FE7
:102F500095EA0C0F00F0A7F8A4EB050481EA030E34
:102F600052EA03354FEA013100F088804FEA03331B
:102F70004FF0805545EA131343EA12634FEA0222E9
:102F800045EA111545EA10654FEA00260EF00041AA
:102F90009D4208BF964244F1FD0404F5407402D2FC
:102FA0005B084FEA3202B61A65EB03055B084FEA8D
:102FB00032024FF480104FF4002CB6EB020E75EB8A
:102FC000030E22BFB61A754640EA0C005B084FEAB2
:102FD0003202B6EB020E75EB030E22BFB61A75462F
:102FE00040EA5C005B084FEA3202B6EB020E75EB7A
:102FF000030E22BFB61A754640EA9C005B084FEAF2
:103000003202B6EB020E75EB030E22BFB61A7546FE
:1030100040EADC0055EA060E18D04FEA051545EAED
:1030200016754FEA06164FEAC30343EA52734FEA96
:10303000C2025FEA1C1CC0D111F4801F0BD141EA0F
:1030400000014FF000004FF0004CB6E711F4801F74
:1030500004BF01430020B4F1FD0C88BFBCF5E06F54
:103060003FF6AFAEB5EB030C04BFB6EB020C5FEA64
:10307000500C50F1000041EB045170BD0EF0004EB9
:103080004EEA113114EB5C04C2BFD4EB0C0541EAEB
:10309000045170BD41F480114FF0000E013C90E6E8
:1030A00045EA060E8DE60CEA135594EA0C0F08BFAC
:1030B00095EA0C0F3FF43BAF94EA0C0F0AD150EAAB
:1030C00001347FF434AF95EA0C0F7FF425AF10463E
:1030D00019462CE795EA0C0F06D152EA03353FF466
:1030E000FDAE1046194622E750EA410618BF52EAE3
:1030F00043067FF4C5AE50EA41047FF40DAF52EAB7
:1031000043057FF4EBAE12E74FEA4102B2F1E04330
:1031100024BFB3F5001CDCF1FE5C0DD901F0004CBE
:103120004FEAC0024CEA5070B2F1004F40EB83000E
:1031300008BF20F00100704711F0804F21D113F13A
:103140003872BCBF01F00040704741F480114FEA73
:103150005252C2F11802C2F1200C10FA0CF320FAFC
:1031600002F018BF40F001004FEAC1234FEAD32319
:1031700003FA0CFC40EA0C0023FA02F34FEA430383
:10318000CCE77FEA625307D150EA01331EBF4FF00C
:10319000FE4040F44000704701F0004040F0FE4027
:1031A00040F40000704700BF70B4840746D0541E3E
:1031B000002A41D0CDB2034602E0621EE4B31446B9
:1031C00003F8015B9A07F8D1032C2ED9CDB245EA5A
:1031D00005250F2C45EA054519D9264603F11002AD
:1031E000103E0F2E42F8105C42F80C5C42F8085C6E
:1031F00042F8045C02F11002F2D8A4F1100222F0AD
:103200000F0204F00F041032032C13440DD91E4694
:103210002246043A032A46F8045BFAD8221F22F019
:1032200003020432134404F003042CB1C9B21C4459
:1032300003F8011BA342FBD170BC70471446034640
:10324000C2E700BF0EB40146F0B54FF6FF779CB061
:1032500021AC54F8042B0D4823466FF00045029131
:1032600006914FF4027602A900680194ADF8167039
:10327000ADF814600495079500F038F8029B002221
:103280001A701CB0BDE8F04003B07047680400201D
:1032900020F0030110F00300C0F1000051F8043BDE
:1032A00000F1040C4FEACC0C6FF000021CBF22FAB4
:1032B0000CF213434FF0010C4CEA0C2C4CEA0C4C72
:1032C000A3EB0C0222EA030212EACC1204BF51F86B
:1032D000043B0430F4D0C2F1000102EA0102B2FA68
:1032E00082F2C2F11F0200EBD20070472DE9F04FCD
:1032F000C1B00C46099115460E930A9002F062FB8C
:10330000036818461793FFF7C3FFA38916901E069C
:1033100003D52369002B01F05C8100231A46A846DF
:103320000DF1C009DFF860A4129319930B93259354
:103330002493CDF88C901492159298F8003044465E
:10334000EBB1252B02D11AE0252B03D014F8013F55
:10335000002BF9D1C8EB04058DB1249B259A0133CC
:103360002A44072BC9F80080C9F8045025922493F9
:1033700000F3328309F108090B9B2B440B9323784C
:10338000002B00F0EA814FF0FF3B5D4600231A4618
:103390008DF86F3019460C930793637804F1010898
:1033A00008F10108A3F12000582800F24586DFE863
:1033B00010F0F30343064306FC03430643064306AB
:1033C0004306430643065900040443066600D0033F
:1033D0004306EC03BC05BC05BC05BC05BC05BC052F
:1033E000BC05BC05BC05430643064306430643062D
:1033F00043064306430643064306E205F704430635
:10340000F7044306430643064306420543064306C4
:103410004A0543064306430643064306740543062E
:103420004306CD05430643064306430643064306CB
:1034300043064306430643061D060E06F704F7043B
:10344000F70415060E0643064306A3044306A80523
:10345000AE046D000A044306120443063504430615
:10346000430670040E9C236818460C9323460028DC
:1034700003F104030E9306DA0C9B5B420C93079B4B
:1034800043F00403079398F8003089E7AB460E9A9F
:103490000027079830217823BB4514688DF87010F9
:1034A00002F104024FF000058DF871308DF86F7055
:1034B00040F00201C0F23D8620F0800141F002019F
:1034C000079154EA05010E921193AD4800F0318145
:1034D00030AE230943EA0573290904F00F020D46B3
:1034E0001C46835C06F8013D54EA0503F1D130AB7C
:1034F0009B1B0D930D9B5B45B8BF5B460893002358
:10350000139317B1089B01330893079B13F0020331
:103510000F9302D0089B02330893079B13F0840398
:10352000109340F018810C9B089A9D1A002D40F3CF
:103530001281102D2599249A924F27DD189648461E
:103540001024B946099E2F460A9D04E0103F102F13
:1035500000F1080016DD01328A4B1031072A25914F
:10356000249280E81800F1DD23AA3146284603F0B2
:10357000CBF8002840F0F880103F102F30A8259994
:10358000249AE8DC3D464F468146189E01326C186D
:10359000072A25942492C9F80070C9F8045000F352
:1035A000D0809DF86F7009F1080977B1249B013430
:1035B00001330DF16F010122072B2594249389E833
:1035C000060000F3208209F108090F9B6BB1249BD0
:1035D000023401331CA90222072B2594249389E885
:1035E000060000F31C8209F10809109B802B00F0F3
:1035F0002C810D9BC3EB0B07002F33DD624A102F8C
:10360000249B0F9222DD22464FF0100B0A9D099C4D
:1036100004E0103F102F09F1080916DD01331032C4
:10362000072B2592249389E8000CF2DD23AA21467A
:10363000284603F069F8002840F09680103F102FCC
:103640000DF1C009259A249BE8DC144601330F9A3A
:103650003C44072B2594249389E8840000F3C78118
:1036600009F10809079BDA0500F19080249B0D9968
:1036700001330C44072B2594C9F80060C9F80410E5
:10368000249300F3E28109F10809079B590736D515
:103690000C9B089A9D1A002D31DD102D249B394F6B
:1036A00022DD22461026DDF828B0099C04E0103DFA
:1036B000102D09F1080916DD013332491032072BAC
:1036C0002592249389E84200F1DD23AA2146584639
:1036D00003F01AF8002847D1103D102D0DF1C00954
:1036E000259A249BE8DC144601332C44072B2594AF
:1036F0002493C9F80070C9F8045000F392840B9B1E
:103700000C9A08998A42ACBF9B185B180B93002C4B
:1037100040F05981002324930DF1C0090DE60027E4
:10372000BB458DF86F70C0F20E85079B23F08003B8
:103730000793BBF1000F00F06C84002400250027E4
:10374000C6E623AA09990A9802F0DEFF60B99DF83F
:103750006F700DF1C009259C27E7259B23B10A98BE
:1037600023AA099902F0D0FF099B9B8913F0400F0F
:103770000B9B18BF4FF0FF33184641B0BDE8F08FE8
:10378000349D0008549D0008009D0008119B652B86
:1037900040F39F80149815990022002303F062FCE7
:1037A000002800F06381249BAE49013301340122DB
:1037B000072B2594249389E8060000F3538409F12C
:1037C00008091D9B129A934203DB079BDB077FF5D9
:1037D0005CAF249B16990133179A0C44072B259450
:1037E000C9F80020C9F80410249300F3E58609F114
:1037F0000809129B5D1E002D7FF747AF9A4A102DD6
:10380000249B0F9240F3178110260A9FDDF824B005
:1038100005E009F10809103D102D40F30C8101333A
:103820001034072B25942493C9F800A0C9F804602C
:10383000EFDD23AA5946384602F066FF002893D1EF
:103840000DF1C009259C249BE5E70C9B089A9F1A63
:10385000002F7FF7CEAE844A102F249B0F922BDDD2
:103860004A462146B946102537460A9C099E06E07D
:10387000A9F11009B9F1100F02F1080218DD0133A6
:103880001031072B25912493C2F800A05560EFDD7D
:1038900023AA3146204602F037FF00287FF464AFA8
:1038A000A9F11009B9F1100F30AA2599249BE6DC83
:1038B0003E460C464F46914601330F9A3C44072B37
:1038C0002594249389E8840000F32B8509F10809E5
:1038D0008FE6129B249D012B04F1010405F10105E3
:1038E00040F3E8840123072D2594C9F8006024954E
:1038F000C9F8043000F3F98409F10809169A013572
:10390000179B1444072D25942495C9F80030C9F855
:10391000042000F3F88409F108090023149815998C
:10392000002203F09FFB129B002800F0EA805E1E3D
:10393000002E40F3F5804C4B102E0F932CDDCDF86C
:1039400034801027B046DDF828B0099E06E0A8F1C3
:103950001008B8F1100F09F108091ADD013510340B
:10396000072D25942495C9F800A0C9F80470EEDD50
:1039700023AA3146584602F0C7FE00287FF4F4AE71
:10398000A8F11008B8F1100F0DF1C009259C249D75
:10399000E4DC4646DDF8348001350F9B3444072DC6
:1039A0002594249589E8480040F3B88023AA099912
:1039B0000A9802F0A9FE00287FF4D6AE259C249D2B
:1039C0000DF1C009ACE023AA09990A9802F09CFE07
:1039D00000283FF49FAEC7E623AA09990A9802F08F
:1039E00093FE00287FF4C0AE0DF1C009C4E423AA01
:1039F00009990A9802F088FE00287FF4B5AE0DF10F
:103A0000C009259C2EE623AA09990A9802F07CFE9B
:103A100000287FF4A9AE0DF1C009259CD5E523AAA5
:103A200009990A9802F070FE00287FF49DAE0DF10E
:103A3000C009259CD9E501330F9A2C44072B259406
:103A4000249389E824007FF71EAE23AA09990A98D7
:103A500002F05AFE00287FF487AE259C0DF1C009C4
:103A600013E600BF509D0008009D00081D9D002D1D
:103A700040F30E83139B129A9342A8BF1346002B68
:103A80001D460DDD249B2C440133072B2594C9F8DA
:103A90000060C9F80450249300F31A8609F108095C
:103AA000139B002DA8BF5B1B002B1D4640F3A0837A
:103AB000B94A102D249B0F9240F3448522461027CB
:103AC000DDF828B0099C05E009F10809103D102D2A
:103AD00040F3378501331032072B25922493C9F820
:103AE00000A0C9F80470EFDD23AA2146584602F071
:103AF0000BFE00287FF438AE0DF1C009259A249BF7
:103B0000E4E7013B013501361C44072DC9F800608C
:103B100024952594C9F804303FF748AF09F1080906
:103B2000199A013514441FAB072D25942495C9F823
:103B30000420C9F800307FF7A6AD23AA09990A9896
:103B400002F0E2FD00287FF40FAE0DF1C009259CC4
:103B50009BE598F8003008F101042A2B00F02E872D
:103B6000A3F13000092898BF002500F2B28614F8AE
:103B7000013B05EB850500EB4505A3F13000092865
:103B8000F5D945EAE575A0460CE4079B43F08003B0
:103B9000079398F8003003E498F8003000297FF488
:103BA000FFAB01222021FFF7FBBB079B43F0010382
:103BB000079398F80030FFF7F3BB98F80030012224
:103BC0002B21FFF7EDBB079B43F02003079398F8E9
:103BD0000030FFF7E5BB0E9AAB461668002511933F
:103BE0008DF86F50141D002E00F0F885BBF1000F0A
:103BF000C0F244855A462946304602F09DF9002815
:103C000000F02E86AB46831B0D9323EAE3730E94DC
:103C10000893CDF84CB09DF86F7072E41193AB46E9
:103C2000002A40F0F386079A12F0200300F0438147
:103C30000E9C0027073424F0070303F10801BB455D
:103C40000E91D3E900458DF86F70C0F2C18222F069
:103C50008003079354EA050300F04881002D08BF54
:103C60000A2CC0F0488130AE204629460A220023A3
:103C700003F068FA303206F8012D20462946002369
:103C80000A2203F05FFA04460D4654EA0503EBD11D
:103C90002DE41193AB46002A40F0B486079B3F48C1
:103CA0009D0640F15D810E9C073424F0070303F16B
:103CB00008020E92D3E90045079A12F0010700F0BE
:103CC000468254EA05033FF42AAD9DF844200027BC
:103CD0008DF87120079A3023BB458DF870308DF830
:103CE0006F7042F00203C0F2A58522F0800343F01A
:103CF00002030793FFF7ECBB98F800306C2B00F041
:103D00005184079840F010000790FFF749BB1193CA
:103D1000AB46002A40F07E86079A12F0200300F09E
:103D2000A0800E9C0027073424F0070303F108014C
:103D3000BB450E91D3E900458DF86F700BDB22F087
:103D40008003079354EA050306D1BBF1000F00F08E
:103D5000B18500240025002730AEE20842EA457212
:103D6000E90804F007030D461446303354EA05020F
:103D700006F8013DF1D1079AD1077FF5B8AB302B9A
:103D80003FF4B5AB3022731E06F8012C30AAD21ACC
:103D90000D921E46FFF7AEBB009D0008349D000843
:103DA0001193AB46002A40F02186079B0E9C1A0710
:103DB00004F1070440F16C8324F0070303F10802C7
:103DC0000E921A685B6814921593159B149D23F04C
:103DD0000044284621464FF0FF32A94B03F074F906
:103DE000002840F0CD82284621464FF0FF32A44BF8
:103DF00003F04CF9002840F0C38214981599002272
:103E0000002303F039F9002840F00E859DF86F700B
:103E100007999C4E21F080019B4B07911199032239
:103E20004FF0000B08924729D8BF1E460D92CDF8DF
:103E30004CB0FFF766BB079B43F00803079398F865
:103E40000030FFF7ADBA1193AB46002A40F0D6859B
:103E5000079B43F010030793079A12F020037FF4A7
:103E600060AF079911F0100200F068820E98BBF164
:103E7000000F024604688DF86F3002F104024FF023
:103E80000005C0F2DD8421F08001079154EA0501AC
:103E90000E923FF45AAF1F465EE71193AB46002ADD
:103EA00040F0A885079B43F010030793079A12F090
:103EB00020037FF4BDAE079911F0100200F02583B6
:103EC0000E98BBF1000F024604688DF86F3002F1C6
:103ED00004024FF00005C0F2A48421F08001079194
:103EE00054EA05010E921F467FF4B8AEBBF1000FF5
:103EF00000F09080002440AE303406F8414DFFF7CA
:103F0000F6BA002A40F09E85079B9B0640F1CA82C4
:103F10000E9A134604330E930B9B1168DD171A4655
:103F20002B46C1E90023FFF708BAA3F130000023B4
:103F30001C4618F8013B04EB840400EB4404A3F195
:103F400030000928F5D90C94FFF72CBA1193AB4631
:103F5000002A40F07385079B4C489D063FF5A3AEB1
:103F6000079BDC0640F1B5820E9A00251346043308
:103F700014680E93A0E61193AB46002A40F05A85D0
:103F8000079B43F010030793079B980640F1F180CD
:103F90000E9C073424F00704D4E9002304F108013F
:103FA0001D4614460E91002A73F10003C0F2F28000
:103FB000BBF1000F9DF86F70C0F20A81079B23F0E0
:103FC0008003079354EA05037FF448AE8EE711930C
:103FD000AB46002AD8D08DF86F10D5E7079B43F089
:103FE0004003079398F80030FFF7DAB90E99119360
:103FF0000A68002301201F468DF86F309B461393FB
:104000000B1D08908DF898200E930D9026AEFFF7AB
:104010007CBA5F464FF0000BCDF834B030AEFFF7FE
:1040200069BA23AA09990A9802F06EFB00287FF466
:104030009BAB259CFFF763BB1193002A40F0F684ED
:10404000119A002A3FF489AB002301211F460891F1
:104050008DF898208DF86F309B4613930D9126AE06
:10406000FFF753BA23AA09990A9802F04DFB0028DA
:104070007FF47AAB0DF1C009259CFFF7A2BB00BF0E
:10408000FFFFEF7F149D0008109D0008209D000891
:10409000249BB849013301340122072B2594249332
:1040A00089E8060000F3C18209F108092DB9129BC5
:1040B0001BB9079BDF077FF5E8AA249B16990133FC
:1040C000179A0C44072B2594C9F80020C9F804104E
:1040D000249300F3028409F108096D42002D40F396
:1040E000E082A54A102D0F9240F30083224610274C
:1040F000DDF828B0099C05E009F10809103D102DF4
:1041000040F3F38201331032072B25922493C9F830
:1041100000A0C9F80470EFDD23AA2146584602F03A
:10412000F3FA00287FF420AB0DF1C009259A249BF7
:10413000E4E792480791119354EA05030E924FF079
:1041400000077FF4C5A900240025FFF7C1B9BBF122
:10415000000F8DF86F70C0F2028222F08003079387
:1041600054EA05037FF4B4A9BBF1000F7FF4E5AA7C
:104170004FE7079BD90640F1B9810E9A13461C6898
:104180000433E51722460E932B46002A73F10003F1
:10419000BFF60EAF64424FF02D0765EB4505BBF14E
:1041A000000F8DF86F70FFF659AD079B23F0800369
:1041B000079353E50E9ABBF1000F134614688DF870
:1041C0006F7003F104034FF0000580F2CA810E9373
:1041D00054EA05037FF442AD8DE623AA09990A98B3
:1041E00002F092FA00287FF4BFAA259C0DF1C009C5
:1041F000139A1D9B32441746129A934249DB079A41
:10420000D50746D412990E44F51BCB1A9D42A8BF80
:104210001D46002D2E460DDD249A2C440132072A1E
:104220002594C9F80070C9F80450249200F3C7829D
:1042300009F10809002EB4BF1D469D1B002D7FF714
:1042400024AA4D4A102D249B0F927FF7F4AB102621
:104250000A9FDDF824B005E009F10809103D102D92
:104260007FF7E9AB01331034072B25942493C9F869
:1042700000A0C9F80460EFDD23AA5946384602F0D1
:1042800043FA00287FF470AA0DF1C009259C249BF5
:10429000E4E7249A1698013217990444072A2594D2
:1042A000C9F80010C9F80400249200F37B8209F1D8
:1042B0000809A7E7079BD8073FF514AB0123072D93
:1042C0002594C9F800602495C9F804307FF726AC1E
:1042D00023AA09990A9802F017FA00287FF444AA41
:1042E0000DF1C009259C249D1AE423AA09990A9876
:1042F00002F00AFA00287FF437AA0DF1C009259CC4
:10430000249DFFF7FBBA23AA09990A9802F0FCF949
:1043100000287FF429AA0DF1C009259C249DFFF7F0
:10432000FCBA23AA09990A9802F0EEF900287FF452
:104330001BAA0DF1C009259CFFF75BB9079911F085
:10434000400700F018810E98BBF1000F03468DF86E
:104350006F2003F1040304884FF00005C0F272815E
:1043600021F08001079154EA05010E933FF4EDAC72
:104370001746F1E4509D0008009D0008349D000898
:10438000149C22462046159C2346214602F09CFEA2
:10439000002840F0C482119BBBF1FF3F23F02003B3
:1043A0000D9300F04A82472B00F04F81079B43F4A6
:1043B00080731093159B1F1E149B0893B7BF3B4639
:1043C000002303F100472D230F93119B662B00F070
:1043D0001482462B00F00C810D9B21A8452B18BFA1
:1043E0005D461EA908BF0BF10105049003911DA8AD
:1043F00002213B460290089A019500910A9800F02C
:10440000BBFB119B0646672B40F03682079BDA0701
:1044100040F172827419089839460022002302F094
:1044200021FE002840F05281219B9C4206D9302178
:104430005A1C21921970219B9C42F9D89B1B129304
:104440000D9B472B00F03B81119B652B40F3238292
:10445000119B662B1D9B139300F01F82139A1299D8
:104460008A42C0F2F081079BD90700F1478222EA15
:10447000E2730D92672211920F9A002A40F0F480A5
:104480000893109B934607939DF86F70FFF739B818
:1044900024F00704236814936368159304F1080358
:1044A0000E9392E4079BDF060BD4079B5E0608D5AC
:1044B0000E9A136804320E92BDF82C201A80FEF773
:1044C0003CBF0E9A136804320E920B9A1A60FEF7E4
:1044D00034BF079B0E9A13F0400F134600F0BE80C6
:1044E0000433148800250E93FFF7E6BB079B0E9A52
:1044F00013F0400F13463FF442AEB2F900400433CC
:10450000E5170E9322462B464DE5079911F040071B
:104510003FF450AE0E98BBF1000F03468DF86F20AC
:1045200003F1040304884FF00005C0F2948021F0E9
:104530008001079154EA05010E9317467FF48EAB74
:10454000D4E4144601330F9A2C44072B259424936A
:1045500089E824003FF741AE09F1080948E60E9AC0
:10456000EAE5079A0E9322F08002079254EA0502C8
:104570007FF474ABBAE40E9ABBF1000F13461468D3
:104580008DF86F7003F104034FF000055ADB079AB2
:104590000E9322F08002079254EA05027FF4DCAB0E
:1045A000FFF7D3BB079B08F1010843F020030793F3
:1045B00098F80030FEF7F4BE23AA09990A9802F091
:1045C000A3F800287FF4D0A80DF1C009259CFFF7BF
:1045D00010B940210A9801F003FA099A106010619D
:1045E000002800F0F981099A40235361FEF795BE37
:1045F00021A81EA9049003911DA803210290089AE6
:104600003B46CDF804B000910A9800F0B5FA5D463B
:104610000646119B7419462B7FF4FDAE3378302B80
:1046200000F092811D9D2C44F5E623AA09990A9871
:1046300002F06AF800287FF497A80DF1C0091D9DCB
:10464000259C33E50E93FFF786BBBBF1000F08BF37
:104650004FF0010BAAE60E931746B9E50433146830
:1046600000250E93FFF728BB0893109B2D27079377
:104670008DF86F704FF0000BFEF744BF3046FEF729
:1046800007FEAB460346FFF7BFBA23AA09990A986B
:1046900002F03AF800287FF467A8259C249B0DF1CE
:1046A000C009129901330C44072B25942493C9F8AF
:1046B0000060C9F804107EF7E6AFFFF7C6B91D9B8E
:1046C000DD1C1FDB9B451DDB1393C7E62346B5E6C8
:1046D00023AA09990A9802F017F800287FF444A841
:1046E0000DF1C009259CFFF7DBB9144601330F9A81
:1046F0002C44072B2594249389E82400C5DC09F178
:104700000809CEE7119A023A1192013B9DF8442024
:10471000002B1D93B8BF5B428DF87C20B4BF2D22C7
:104720002B22092B8DF87D2040F3F1800DF18B00B9
:104730000446BA4A82FB0321DA17C2EBA10101EB5E
:104740008102A3EB4202303209290B4604F8012D05
:10475000EFDC21463033DAB201F8012D884240F215
:1047600042810DF17E01234601E013F8012B9842AE
:1047700001F8012BF9D1431C1B1B0DF17E021344E0
:104780001FAA9B1A129A1993012A13440D9340F3FE
:10479000FA800D9B169A134400220D93139223EA7C
:1047A000E37369E623AA09990A9801F0ADFF00288E
:1047B0007EF4DAAF0DF1C0091D9B259C22E523AAEA
:1047C00009990A9801F0A0FF00287EF4CDAF1D9B47
:1047D000129A259CD31A0DF1C0092BE55B46062BD6
:1047E00028BF06230D9323EAE373B3463746139697
:1047F0000E9408938A4EFEF784BE21A81EA9049049
:1048000003911DA803210290089A3B46CDF804B0FD
:1048100000910A9800F0B0F95D46064600EB0B04E3
:10482000FCE60E921F46D3E42D231F468DF86F3011
:10483000FFF7EEBA0793FEF74BBE4FF0060BB5E558
:104840000E92FFF788BA169A129B1344139A0D938F
:10485000002A40F39080672223EAE37311920BE66B
:104860002BEAEB73CDF834B0089383460E94139083
:104870009DF86F70FEF745BE119B472B7FF4CAADC4
:10488000079BDB073FF5C5AE219B9B1B12930D9B3E
:10489000472B3FF414AF1D9B37E7002B7DDDBBF1A9
:1048A000000F5FD1079AD4075CD41A4623EAE3735A
:1048B0000D92E1E5079B5F46DB0705D540AE30234F
:1048C00006F8413DFEF713BECDF834B030AEFEF72A
:1048D00011BEA0460025FEF765BD23AA09990A98D6
:1048E00001F012FF00287EF43FAF0DF1C0091D9DBD
:1048F000259C249BFFF7F1BB219B9FE5169A139BF8
:10490000134467220D93119223EAE373B4E5303325
:1049100030228DF87F308DF87E2020AB30E707996C
:10492000404E21F08001404B0791119903224FF036
:10493000000B08924729D8BF1E460D92CDF84CB007
:104940009DF86F70FEF7DDBD089839460022002300
:1049500002F088FB00287FF465AEC5F101051D95C6
:104960002C4458E5139B169A9D1805EB0B030D93E9
:1049700023EAE37380E5139B0D9AC3F101031A4404
:1049800013460D9267E7079B13F001037FF401AF15
:1049900013930D9B23EAE3736EE5BBF1000F02D185
:1049A000079BD80707D5169B5D1C05EB0B030D93E2
:1049B00023EAE37360E501230D935DE50E9898F813
:1049C000013005680430002D0E90A046BEF6E8AC1C
:1049D0004FF0FF35FEF7E4BC0A9A0C2313604FF04A
:1049E000FF30FEF7CABE0DF17E03C9E68DF86F10E9
:1049F000FFF7DBB98DF86F10FFF754BA8DF86F1021
:104A0000FFF726BA8DF86F10FFF748B98DF86F10D1
:104A1000FFF709B98DF86F10FFF77EB96766666614
:104A2000489D00081C9D0008189D00088DF86F1017
:104A3000FFF706BB8DF86F10FFF7A2BA8DF86F1065
:104A4000FFF789BA8DF86F10FFF75EBA2DE9F04FC6
:104A500003690F6983B09F4200F38980013F01F130
:104A6000140600F1140A56F827305AF827200133AB
:104A7000B2FBF3F8BB00009306EB03095344019328
:104A8000B8F1000F3BD000231C46B446D6465CF874
:104A900004BBDEF800501FFA8BF208FB02324FEA2B
:104AA0001B4B130C08FB0B3392B2A41A1FFA83FBA7
:104AB000AAB22244CBEB154404EB224492B242EA60
:104AC0000442E1454EF8042B4FEA24444FEA1343D5
:104AD000DDD2009B5AF803308BB9019C231F9A4505
:104AE0000CD254F8043C4BB9A4F1080302E01A6854
:104AF000043B1AB99A4507F1FF37F8D3076104461A
:104B000001F0E8FC00282EDB00235546194608F189
:104B1000010856F8042B2B6890B2081A120C99B2AF
:104B2000C2EB1343421803EB224392B242EA034220
:104B3000B14545F8042B4FEA2341EAD25AF8272021
:104B40000AEB87037AB91A1F92450BD253F8042C4B
:104B500042B9083B02E01A68043B1AB99A4507F1CA
:104B6000FF37F8D32761404603B0BDE8F08F00203F
:104B700003B0BDE8F08F00BF2DE9F04F016C99B094
:104B8000814692469B46259C49B1426C0123934045
:104B90008B604A6001F0B8FA0023C9F84030BBF1DD
:104BA000000FD84633DB00232360A34B1A4608EAE4
:104BB0000303934214D0002200235046594602F0CA
:104BC00051FA054648B3249A01231360269B002B13
:104BD00000F0C58099481860013819B0BDE8F08F21
:104BE00042F20F73249A1360BAF1000F00F0A28012
:104BF0009348269B002BF0D0C378002B00F0B180A7
:104C000000F10803269A136019B0BDE8F08F012364
:104C10002BF000482360C346C7E716AA17AB0192E2
:104C2000009352465B46484601F008FD5FEA18547F
:104C3000099040F08880169D179C2C4404F2324362
:104C4000202B40F38A82C3F1400304F2124008FA99
:104C500003F82AFA00F040EA0800FDF7CDFF01232F
:104C6000013CA1F1F8710F930022764BFDF786FE0F
:104C70006BA3D3E90023FEF735F86BA3D3E9002338
:104C8000FDF77EFE064620460F46FDF7C5FF68A3EA
:104C9000D3E90023FEF726F802460B463046394694
:104CA000FDF76EFE06460F4602F024FA002203903E
:104CB00000233046394602F0DFF9002840F029820F
:104CC000039E162E00F222825F49524601EBC60176
:104CD0005B46D1E9000102F0EDF9002800F04282C4
:104CE000731E039300230D932C1B631E049300F18A
:104CF0002B8200230693039B002BC0F21C82049A94
:104D00000C9311461944002304910B93229B092B09
:104D100029D8052B40F35286043B22930025229B81
:104D2000023B032B00F22F86DFE813F0270320025B
:104D300032035304424B454AC8F31300002814BF02
:104D40001846104655E7CBF3130343F07F510F95F8
:104D50005046A4F2FF3441F44011169D84E73C48CC
:104D60003BE7C31C4EE70021C9F844104846229196
:104D700001F0A2F94FF0FF33229A07930E9301231B
:104D800008902392C9F840000A93179B002BC0F2A9
:104D9000CA80039A0E2A00F3C6802B4B03EBC20392
:104DA00018CBCDE90434239B002BC0F2FC8256467D
:104DB0005F46DDE904AB304652465B463946FEF7B6
:104DC000BBF802F097F90446FDF726FF52465B4612
:104DD000FDF788FF02460B4630463946FDF7CEFD0B
:104DE000079E089F04F13005012E3D7002460B46D8
:104DF00007F101055ED00022164BFDF773FF00227C
:104E0000002306460F4602F02DF9002878D1CDF890
:104E10001890DDF81CA0DDF820B0DDE9048928E059
:104E200061436F63A787D23FB3C8608B288AC63FB0
:104E3000FB799F501344D33F0000F07F519D000841
:104E4000709D00080000F83F789D0008649D0008F0
:104E5000509D0008000024400022C34BFDF742FF94
:104E60000022002306460F4602F0FCF8002840F01E
:104E7000B38342464B4630463946FEF75DF802F0B2
:104E800039F90446FDF7C8FE42464B46FDF72AFFB6
:104E900002460B4630463946FDF770FD04F13006F8
:104EA00005F8016BCBEB0506564502460B46D3D100
:104EB000DDF8189010461946FDF762FD06460F46CC
:104EC00002460B46DDE9040102F0D6F840B9DDE9FF
:104ED000040132463B4602F0C5F888B1E3070FD51E
:104EE00015F8014C6B1E089A04E09A4200F02C84DD
:104EF00013F8014D392C03F10105F6D001341C7073
:104F00000999484601F000F90022039B2A70249A6F
:104F100001331360269B002B00F0A88308981D60C6
:104F200019B0BDE8F08F0A9A002A00F01281229A87
:104F3000012A40F35A82079B0B9A5F1EBA42C0F2C5
:104F40009883D71B079B002BC0F28C84069D079B80
:104F5000069A01211A440692049A48461A44049279
:104F600001F06AF9064665B1049900290B4608DD8F
:104F7000A942A8BF2B46069AED1AD21ACB1A06925E
:104F800004930B9B002B40F3FD820A9A002A00F049
:104F90000382002F00F0008231463A46484601F075
:104FA000F3F9DDF82480014642460646484601F002
:104FB0004DF941460446484601F0A6F80B9BDB1B21
:104FC0000B9340F0E8810121484601F035F90C9B34
:104FD0008046002B00F01B8201461A46484601F02D
:104FE000D3F9229B8046012B40F3F9820027D8F8A1
:104FF000103008EB8303186901F0D0F8C0F12000ED
:10500000049A104410F01F0000F0F881C0F1200352
:10501000042B40F3CB84069BC0F11C000344069391
:105020001346034405440493069B002B05DD2146EB
:105030001A46484601F0F8F90446049B002B05DDAA
:1050400041461A46484601F0EFF980460D9B002B79
:1050500040F07D82079B002B40F396820A9B002B39
:1050600040F0F681DDF820A0079F554604E0214678
:10507000484601F053F8044641462046FFF7E6FC57
:10508000303005F8010BCAEB0503BB424FF00A02B2
:105090004FF00003EBDB089B079A8246012AACBF66
:1050A0009B1801331D464FF0000B21460122484654
:1050B00001F0BAF94146099001F00CFA002840F3DA
:1050C0000E8315F8012C6B1E089904E08B4200F04A
:1050D000798213F8012D392A03F10105F6D0013246
:1050E0001A704146484601F00FF8002E3FF408AF11
:1050F000BBF1000F05D0B34503D05946484601F037
:1051000003F83146484600F0FFFFF9E601230D930E
:10511000EAE5DDF80C804046FDF77EFD02460B46D1
:105120003046394601F09EFF00287FF4C9AD08F1F2
:10513000FF330393C4E5069A039BD21A5B420B9399
:10514000002306920C93E1E55B420693002304934F
:10515000D1E50B9F069D0A9E05E7C3F120080AFAD8
:1051600008F07AE50D90BFE50000244000230A9383
:10517000039B239A13440E930133002B079340F3B0
:105180008582079C26460021172EC9F844100BD9AA
:10519000012204235B0003F11400B042114602F126
:1051A0000102F7D9C9F84410484600F085FF0E2CDB
:1051B0000890C9F840003FF6E8AD002D3FF4E5AD9A
:1051C0005746D8460399CDE91078002940F39382D9
:1051D000924B01F00F020E1103EBC203F006D3E96C
:1051E000004540F14E828E4B5046D3E90823594684
:1051F000FDF7A2FE82468B4606F00F064FF003082D
:1052000086B1874FF10709D5D7E900232046294603
:10521000FDF768FD04460D4608F10108761007F118
:105220000807EFD122462B4650465946FDF784FE2B
:1052300006460F460D9B43B100227A4B3046394655
:1052400001F01AFF002840F023834046FDF7E4FCFC
:1052500032463B46FDF746FD734B0022FDF790FBBF
:10526000079B0446A1F15075002B00F0E181039BE0
:105270001393079B12930A9B002B00F09882129ABB
:10528000664B002003EBC20353E902236749FDF795
:1052900053FE22462B46FDF771FB82468B46304675
:1052A000394601F027FF0446FDF7B6FC02460B46DF
:1052B00030463946FDF762FB3034089DE4B20646BD
:1052C0000F462C7002460B4650465946013501F0F8
:1052D000F1FE00284ED132463B4600205149FDF7F1
:1052E0004DFB02460B465046594601F0E3FE0028AE
:1052F00040F00E83129A012A40F3B481129B089A5F
:10530000134498460FE032463B4600204549FDF7DE
:1053100035FB52465B4601F0AFFE002840F0F882B4
:10532000454500F09F81504659460022404BFDF70D
:10533000D9FC00223E4B82468B4630463946FDF76B
:10534000D1FC0F46064601F0D5FE0446FDF764FC8D
:1053500002460B4630463946FDF710FB3034E4B2C6
:1053600005F8014B52465B4606460F4601F084FEA7
:105370000028C8D0139B0393C2E500230A93239B04
:10538000002B40F388811E461C460E930793FAE6D5
:1053900001230A93F3E709940B9A0999484600F010
:1053A000F3FF04460FE6079B002B3FF700AD40F0EC
:1053B000D982DDE9040100221E4BFDF793FC524621
:1053C0005B4601F06DFEDDF81C804646002800F0CB
:1053D000F180239B089DDB4303934146484600F040
:1053E00093FE002E3FF48CAD8BE60F9A002A00F05E
:1053F000418203F233430B9F069DA9E51C20069BC7
:10540000054403440693049B034404930CE6229B47
:10541000012B40F381820C9F0120F1E5789D00086B
:10542000509E00080000F03F00001C400000E03FDC
:105430000000244000001440314600230A22484660
:1054400000F06CFE0E9B0646002B40F397820793FC
:10545000002D05DD31462A46484600F0E5FF0646A8
:10546000002F40F07B810696079B089A013BD318DA
:10547000099317460AF00103C246DDF818B00A93F3
:1054800051462046FFF7E2FA31460546204601F034
:1054900021F85A4604905146484601F03BF8C2684C
:1054A000804605F13003002A49D101462046079382
:1054B00001F010F841460690484600F025FE069A95
:1054C000079B2AB9229919B90A99002900F0368256
:1054D00004990029C0F2E48005D1229919B90A99EA
:1054E000002900F0DD80002A00F34C81099A07F1C1
:1054F000010897423B70454600F053812146002346
:105500000A22484600F00AFE5E45044631464FF046
:1055100000034FF00A0248460BD000F0FFFD594649
:10552000064600230A22484600F0F8FD4746834617
:10553000A6E700F0F3FD474606468346A0E701468E
:105540004846069300F0E0FD0122069BC0E7414675
:10555000204600F0BFFF0028BFF67CAD2146039C2B
:105560000023013C0A224846039400F0D7FD0A9B21
:105570000446002B7FF460AF0E9B002B40F3F681B6
:1055800007936FE5099C1EE5229B022B7FF766AD12
:10559000079B002B40F07A8141460522484600F0E7
:1055A000BDFD01468046204600F094FF0028099486
:1055B0007FF70FAF039A08993123013203920B70E2
:1055C0004D1C0AE7039A312301320392089A1370A3
:1055D00087E501230A93CBE5DDF8189090E4BAF152
:1055E000000F7FF403ADCBF31303002B40F0408199
:1055F0002BF000473F0D3F0537B1069B01270133D4
:105600000693049B013304930C9B0120002B3FF471
:10561000F7ACECE44046FDF7FFFA32463B46FDF7B7
:1056200061FB0022BF4BFDF7ABF90446A1F15075B9
:10563000304639460022BC4BFDF7A0F922462B46E6
:1056400006460F4601F036FD8046002840F00681F0
:10565000224605F100433046394601F00DFD08B100
:105660004646B6E6DDE910ABFFF78FBB0898FFF7BB
:10567000B4BA0B9B0C9AFB1A1A440B970C92002796
:1056800060E4DDE910AB4FF00208B9E51C460021EB
:10569000C9F8441088E5012423940E940794F6E792
:1056A000002AD046CDF818B09A4611DD21460122D5
:1056B000484600F0B9FE4146044600F00BFF0028C2
:1056C00040F34981BAF1390F00F0078105F1310A41
:1056D000B34687F800A07D1C069E099401E504D11D
:1056E0001AF0010F01D0ECE4154615F8013C6A1ED2
:1056F000302BF9D0F5E4039B5C42002C00F0C18014
:10570000DDE91001894B04F00F0203EBC203D3E97A
:105710000023FDF7E7FA241106460F4600F02B811F
:10572000834D4FF00208E20709D5D5E90023304642
:105730003946FDF7D7FA06460F4608F1010864100E
:1057400005F10805EFD175E5089930220A70039A32
:1057500015F8014C01320392FFF7D0BB716848463F
:1057600000F0AAFC0546336906F10C019A1C920070
:105770000C3000F027FC29460122484600F054FE78
:10578000069071E6392BCDF818B0D04600F0A58010
:1057900003F1010AB34687F800A07D1C069E099418
:1057A0009FE45A46D046B3469A4616467DE4129B7D
:1057B0005E4903F1FF3A01EBCA012246D1E900013B
:1057C0002B46FDF78FFACDE914013946304601F03A
:1057D00091FC0446FDF720FA0B4602463946304656
:1057E000FDF7CCF8129B0F4608993034012B064682
:1057F0000C7001F101051FD0129B089AA8461344B2
:105800009B4600224B4B30463946FDF76BFA0F465C
:10581000064601F06FFC0446FDF7FEF902460B4612
:1058200030463946FDF7AAF8303408F8014BC34535
:1058300006460F46E5D1554400223F4BDDE91401F1
:10584000FDF79EF832463B4601F016FC00284CD08E
:10585000139B039315F8014CFFF744BB4FF000086E
:105860004646A7E6069B079A9D1A0023FFF770BBE2
:105870000027C9E6169B0B9FC3F13603069DFFF771
:1058800067BBDDE910674FF00208D3E40994A0E597
:10589000079B002B3FF4BEAE0E9B002B7FF7E2AEC2
:1058A0000022244B30463946FDF71CFA06460F46C7
:1058B00008F10100FDF7B0F932463B46FDF712FA58
:1058C0000022184BFDF75CF8039A0E9B013A044640
:1058D0001392A1F150751293CDE43922B346099485
:1058E000069E3A707D1CFFF7EEBBDDE91423002015
:1058F0001149FDF743F832463B4601F0DBFB08B99E
:10590000B0E6154615F8013C6A1E302BF9D031E59A
:10591000139B0393FFF7E6BABAF1000F7FF47BAD58
:1059200061E600BF00001C4000001440789D0008A4
:10593000509E0008000024400000E03F392BCDF8C5
:1059400018B0D046DDF810B09A46C6D0BBF1000FB3
:105950003FF7BCAEBCE67FF4BBAE1AF0010F3FF4DC
:10596000B7AEAFE64FF00008464632E5229B022B69
:1059700021DC0E9B04E64FF002085BE4229B022B25
:1059800019DC0E9B63E50024C9F8444021464846D3
:1059900000F092FB4FF0FF3307930E930123089022
:1059A0002394C9F840000A93FFF7EFB93FF43CABEA
:1059B000C0F13C0023E50E9B0793E9E50125FFF7C5
:1059C000AEB900BF044A054B1268506B002808BFEF
:1059D0001846F030704700BF680400207C080020A3
:1059E0002DE9F04F01F10B05162D83B0064640F26C
:1059F000A08035F0070500F1C080A94200F2BD800B
:105A000000F056FBB5F5FC7FC0F090826B0A00F009
:105A1000BB80042B00F27781A80900F1390E4FEA10
:105A20004E013830BE4F07EB81014C680839A14266
:105A300007D1AEE0002A80F2AE80E468A14200F017
:105A4000A880636823F003035A1B0F2AF2DDB449D0
:105A50003C6901F1080E744500F0A881636823F0E9
:105A600003035A1B0F2A00F38E81002AC1F814E0A9
:105A7000C1F810E080F29380B3F5007F80F05C8184
:105A8000DB084A684FEAA3094FF0010C013351F8D3
:105A900033800CFA09F901EBC30C49EA0202ACF1BC
:105AA000080CC4F80CC0C4F808804A6041F83340C0
:105AB000C8F80C40831001249C4094427CD81442C6
:105AC00006D120F003006400144200F10400FAD073
:105AD00007EBC009CC468046DCF80C108C4507D19A
